:100000001EC038C037C036C035C034C033C032C05F
:1000100031C030C02FC02EC02DC02CC02BC02AC074
:1000200029C028C027C0B5C293C295C297C299C241
:100030009BC29DC29FC2A1C2A3C2A5C2A7C21124D6
:100040001FBECFE5D4E0DEBFCDBF12E0A0E6B0E03A
:10005000E2E0F2E102C005900D92AE33B107D9F7AC
:1000600022E0AEE3B2E001C01D92AD38B207E1F785
:10007000CED2C5C8C5CFA998999B18C0A19A86EAC7
:100080008A95F1F700C0A19887E18A95F1F7000001
:10009000999906C086EA8A95F1F700C081E0089533
:1000A00086EA8A95F1F700C080E0089580E008951F
:1000B000A99898E0A19A80FF0AC022E02A95F1F75A
:1000C0000000A19827E12A95F1F7000009C027E177
:1000D0002A95F1F70000A19822E02A95F1F7000097
:1000E0008695915039F70895C6DF882331F08CEC5E
:1000F000DFDF84E4DDDF81E0089580E00895A198EA
:1001000098E080E0A19A22E02A95F1F70000A198FA
:1001100022E02A95F1F7000086959999806827E1F9
:100120002A95F1F70000915069F708950F931F93F6
:10013000CF93DF93082F192F9EDF882371F08CEC6B
:10014000B7DF8EEBB5DFC02FD12F19E0D8DF899351
:100150001150E1F721E030E002C020E030E0822FD2
:10016000932FDF91CF911F910F910895A898989B9D
:1001700018C0A09A86EA8A95F1F700C0A09887E196
:100180008A95F1F70000989906C086EA8A95F1F7FA
:1001900000C081E0089586EA8A95F1F700C080E00A
:1001A000089580E00895A89898E0A09A80FF0AC07A
:1001B00022E02A95F1F70000A09827E12A95F1F7AF
:1001C000000009C027E12A95F1F70000A09822E07D
:1001D0002A95F1F700008695915039F70895C6DF0A
:1001E000882331F08CECDFDF84E4DDDF81E00895EB
:1001F00080E00895A09898E080E0A09A22E02A95F7
:10020000F1F70000A09822E02A95F1F7000086950A
:100210009899806827E12A95F1F70000915069F7D5
:1002200008950F931F93CF93DF93082F192F9EDF0D
:10023000882371F08CECB7DF8EEBB5DFC02FD12FA8
:1002400019E0D8DF89931150E1F721E030E002C0D6
:1002500020E030E0822F932FDF91CF911F910F91FB
:1002600008959798879B18C08F9A86EA8A95F1F728
:1002700000C08F9887E18A95F1F70000879906C042
:1002800086EA8A95F1F700C081E0089586EA8A95AA
:10029000F1F700C080E0089580E00895979898E015
:1002A0008F9A80FF0AC022E02A95F1F700008F980C
:1002B00027E12A95F1F7000009C027E12A95F1F717
:1002C00000008F9822E02A95F1F700008695915062
:1002D00039F70895C6DF882331F08CECDFDF84E442
:1002E000DDDF81E0089580E008958F9898E080E058
:1002F0008F9A22E02A95F1F700008F9822E02A9544
:10030000F1F7000086958799806827E12A95F1F733
:100310000000915069F708950F931F93CF93DF93D7
:10032000082F192F9EDF882371F08CECB7DF8EEB3E
:10033000B5DFC02FD12F19E0D8DF89931150E1F735
:1003400021E030E002C020E030E0822F932FDF91E7
:10035000CF911F910F9108958E988D988C988B98BE
:10036000919A929A80B383FB882780F9849982605E
:1003700085998460869988608295807F9298929A08
:1003800090B393FB992790F9849992608599946032
:10039000869998609298892B08959098DDDF08954A
:1003A0008E9A8D9A8C9A8B9A9198929A982F929570
:1003B0009F7090FF02C0939A01C0939891FF02C072
:1003C000949A01C0949892FF02C0959A01C09598A2
:1003D000987011F0969A01C096989298929A80FF20
:1003E00002C0939A01C0939881FF02C0949A01C001
:1003F000949882FF02C0959A01C0959883FF02C02D
:10040000969A01C096989298C8DF8823ECF30895D5
:100410009098C6DF0895909AC3DF089580933F02B5
:1004200060933E02843090F4662384F0603174F46B
:10043000823031F0833031F0813029F488E203C01A
:1004400080E101C080E56058860FE2DF0895CF9318
:10045000C82F80913F02843070F460913E02662381
:1004600054F0603144F4DADF8C2F8058883008F47F
:10047000C7708C2FD0DF80913E028F5F80933E0249
:10048000CF910895CF93DF93EC018991882321F0D8
:10049000DEDF89918111FCCFDF91CF910895109219
:1004A0003F0210923E0281E0B3DF08958E9A8D9A4A
:1004B0008C9A8B9A889A8A9A899A909A929A919A07
:1004C00085EA9EE00197F1F700C0000092989098AD
:1004D0009198929A939A949A95989698929880E087
:1004E00094E00197F1F700C00000929A939A949AD1
:1004F00095989698929891E29A95F1F70000929AC1
:10050000939A949A95989698929881E28A95F1F7A1
:100510000000929A9398949A95989698929891E25E
:100520009A95F1F7000088E273DF88E071DF8CE0D4
:100530006FDF86E06DDFB3DF0895482F50E0FA01EA
:100540003197EC30F10518F4ED5EFF4F09940895F2
:1005500082E090E0089583E090E0089581E090E0EB
:10056000089585E090E0089586E090E0089584E0A5
:1005700090E0089588E090E0089589E090E0089583
:1005800087E090E0089580E090E008958CE090E0AE
:1005900008958BE090E0089581E090E02EE728BB7D
:1005A000B49912C0089546B3432389F0330F0196DE
:1005B0003323CCF730E0220F331F2E77332721600F
:1005C000273768F780E00895019630E2ECCF089570
:1005D00081E090E02EE741E050E07EE711C066B395
:1005E0006323A1F0330F01963323CCF730E0220FC1
:1005F000331F2E7733272160273710F4CA01272FA6
:1006000028BBB49B03C0019630E2E9CF0895CF9395
:10061000DF93CDB7DEB7AB970FB6F894DEBF0FBE52
:10062000CDBFA59AA49AA39A81E390E09A83898387
:100630008FE087BB8FE788BB39DF31DFE3E9F0E08C
:1006400001900020E9F73197E359F0401E2FE4E7CD
:10065000F0E001900020E9F73197E457F0400E2FC9
:100660009BDF8C3009F443C060E080E0D7DE8CEB88
:1006700090E008DF60E081E0D1DE8DEC90E002DF09
:1006800060E082E0CBDE8EED90E0FCDE60E083E0B7
:10069000C5DE8FEE90E0F6DE2FE332E48FE02150EE
:1006A00030408040E1F700C00000F9DE60E080E00B
:1006B000B5DE80E091E0E6DE60E081E0AFDE81E182
:1006C00091E0E0DE60E082E0A9DE82E291E0DADE45
:1006D00060E083E0A3DE83E391E0D4DE9FE322E4E5
:1006E0003FE0915020403040E1F700C00000812CF5
:1006F000912CC12CD12C88E090E05C01A01AB108AB
:1007000007FDB3943C01611A710817FD7394C7DEAD
:1007100060E081E083DE84E491E0B4DE60E082E0CA
:100720007DDE83E591E0AEDE60E083E077DE82E6A9
:1007300091E0A8DE00E18FE996E821E08150904049
:100740002040E1F700C0000060E080E067DE81E764
:1007500091E098DE1D2D11506D2D80E05FDE84E765
:1007600090E090DE812F992787FD9095A816B90615
:1007700084F0602F6C1980E051DE84E790E082DE27
:100780003FE0C31611F0D12E02C0C12CD12CC3946E
:1007900001C0D12E01DF843069F481DE60E080E0A9
:1007A0003DDE82E891E06EDEF7DE8430E9F381E041
:1007B0008E8F20C0F1DE823069F471DE60E080E06F
:1007C0002DDE83E991E05EDEE7DE8230E9F392E040
:1007D0009E8F10C0E1DE833009F0ADCF60DE60E0B7
:1007E00080E01CDE84EA91E04DDED6DE8330E9F362
:1007F00023E02E8F60E081E011DE85EB91E042DEA8
:10080000E7DE182FC9DE8C3009F481CFC5DE8B30CE
:1008100009F47DCFC1DE1817E9F3812F8EDEF82EA3
:100820001F928F9326EC31E03F932F938E010F5F41
:100830001F4F1F930F9320D266E082E0EFDDC801C7
:1008400021DEC6DE182FA8DE0F900F900F900F90BC
:100850000F900F908C3009F45ACF9EDE1817E9F3F1
:10086000812F6BDE2F2D30E0220F331F7901EE0C2C
:10087000FF1CEE0CFF1C2E0D3F1D7901E80EF11C34
:1008800066E082E0CBDD8E2D58DE893709F43FCF5C
:10089000882309F43CCF1F928F938CEC91E09F93B7
:1008A0008F938E010F5F1F4F1F930F93E5D1C801E8
:1008B000E9DD60E083E0B2DD81ED91E0E3DD0F9002
:1008C0000F900F900F900F900F9066DE813089F49B
:1008D000E6DD1F8ED12C0F2EF0E44F2EF2E05F2EBE
:1008E000F02D8E010F5F1F4FBDA2ACA2AAA0BBA02E
:1008F00004C052DE8C3049F70ACFF6DB882309F4B6
:100900008CC06DDC892B09F488C0E4DC892B09F4E8
:1009100084C03FEE89E492E0315080409040E1F79E
:1009200000C00000CE01039601DC2C812FA31EA283
:100930008B812EA13FA1280F311DC90199230CF4F1
:100940000F969C01359527953595279535952795D3
:100950003595279539A328A33F932F938CEC91E0ED
:100960009F938F938CE592E09F938F9385D1CE01D7
:100970000C9657DC3D8539A718A68C8528A539A586
:10098000280F311DC9010F900F900F900F900F90FD
:100990000F9099230CF40F965C01B594A794B5942D
:1009A000A794B594A794B594A794BF92AF928CECFA
:1009B00091E09F938F938DE792E09F938F935CD10B
:1009C000CE014596A9DC3E893BA71AA68D892AA4AB
:1009D0003BA4280E311C0F900F900F900F900F909A
:1009E0000F9033201CF48FE0280E311C359427948F
:1009F0003594279435942794359427943F922F92D9
:100A00002CEC31E03F932F935F924F9235D10F90B2
:100A10000F900F900F900F900F9060E080E0FEDC41
:100A200081E791E02FDDCD2CCA946D2D80E0F6DCBE
:100A300083E990E027DD8C2D992787FD9095681636
:100A400079069CF060E19F8D691B80E0E7DC83E91B
:100A500090E018DD2F8D2F3011F0DC2C02C01F8E9E
:100A6000D12C3F8D3F5F3F8F01C0DC2C8E8D8230BB
:100A700009F447C0833009F484C0813009F0C0C054
:100A800060E0CCDC8EE690E0FDDC8FE791E0FADC04
:100A90008CE592E0F7DC82EE91E0F4DCFF92EF92DD
:100AA00025EE31E03F932F931F930F93E5D0C801BC
:100AB000E9DC81E591E0E6DC60E082E0AFDC88EE35
:100AC00091E0E0DC60E083E0A9DC8FE791E0DADC34
:100AD0008DE792E0D7DC8DE791E0D4DCC201D2DC77
:100AE0000F900F900F900F900F900F9028A139A1A9
:100AF0002E153F051CF4AC9AAB9A82C0AC98AB980B
:100B00007FC060E081E08ADC80E690E0BBDC80E8CA
:100B100091E0B8DC8DE792E0B5DC82EE91E0B2DCEA
:100B2000FF92EF9285EE91E09F938F931F930F9327
:100B3000A3D0C801A7DC81E591E0A4DC60E082E0FD
:100B40006DDC89EF91E09EDC60E083E067DC8FE79D
:100B500091E098DCC20196DC8DE791E093DC8CE5B6
:100B600092E090DC0F900F900F900F900F900F90ED
:100B7000AE14BF041CF4AC9AAB9A42C0AC98AB98CC
:100B80003FC060E081E04ADC87E690E07BDC80E803
:100B900091E078DCC20176DC82EE91E073DCFF92BA
:100BA000EF9285EE91E09F938F931F930F9364D004
:100BB000C80168DC81E591E065DC60E082E02EDC64
:100BC0008AE092E05FDC60E083E028DC8FE791E080
:100BD00059DC8CE592E056DC8DE791E053DC8DE743
:100BE00092E050DC0F900F900F900F900F900F90AD
:100BF0002E143F041CF4AC9AAB9A02C0AC98AB988C
:100C000081E038E1231631040CF480E0811108C042
:100C100081E098E1A916B1040CF480E08823B9F0D2
:100C2000892859F460E080E0F9DB8BE192E02ADC6E
:100C3000AD9A88248394912C0BC060E080E0EEDBB9
:100C40008CE292E01FDCAD98812C912C01C0AD9814
:100C5000A3DC8C3009F051CEBBA2AAA2ACA0BDA0EF
:100C60002FE33DE083E0215030408040E1F700C0B9
:100C70000000C12CD12C4BCDAEE0B0E0E1E4F6E0B9
:100C800095C20D891E8986E08C831A8309838FEFB4
:100C90009FE79E838D83CE014996AC016F89788D45
:100CA000CE01019608D0EF81F885E00FF11F108288
:100CB0002E96E4E097C2ACE0B0E0E0E6F6E068C271
:100CC0007C016B018A01FC0117821682838181FFFE
:100CD000B9C188248394912C8C0E9D1EF7019381B9
:100CE000F60193FD859193FF81916F01882309F4AB
:100CF000A5C1853239F493FD859193FF81916F01F0
:100D0000853221F4B70190E0B9D1E8CF512C312CD4
:100D100020E02032A8F48B3261F028F4803251F0C8
:100D2000833271F40BC08D3239F0803349F4216085
:100D300028C02260246025C0286023C0206121C013
:100D400027FD27C0382F30533A3078F426FF06C0ED
:100D5000FAE05F9E300D1124532E13C08AE0389EB6
:100D6000300D1124332E20620CC08E3221F426FD6A
:100D700065C1206406C08C3611F4206802C0883634
:100D800041F4F60193FD859193FF81916F018111EB
:100D9000C0CF982F9554933018F09052933028F488
:100DA0000C5F1F4FFFE3F9830DC0833631F08337AB
:100DB00071F0833509F05AC022C0F801808189831F
:100DC0000E5F1F4F44244394512C540114C038012A
:100DD000F2E06F0E711CF801A080B18026FF03C005
:100DE000652D70E002C06FEF7FEFC5012C873BD10E
:100DF0002C0183012C856FE7262E222217C0380193
:100E0000F2E06F0E711CF801A080B18026FF03C0D4
:100E1000652D70E002C06FEF7FEFC5012C8718D100
:100E20002C012C8550E8252E222A830123FC1AC090
:100E300005C0B70180E290E021D13A94832D90E083
:100E400048165906B0F30EC0F50127FC859127FE20
:100E500081915F01B70190E011D131103A94F1E036
:100E60004F1A51084114510479F7E5C0843611F046
:100E7000893639F5F80127FF07C0608171818281C9
:100E800093810C5F1F4F08C060817181882777FDB7
:100E90008095982F0E5F1F4F4FE6B42EB22297FF1A
:100EA00009C090958095709561957F4F8F4F9F4FAA
:100EB000F0E8BF2A2AE030E0A4010CD1A82EA8183F
:100EC00042C0853731F43FEEB32EB2222AE030E043
:100ED00024C099EFB92EB2228F36B9F020F48835AC
:100EE00009F0ACC00DC0803721F0883709F0A6C0EA
:100EF00002C020E1B22AB4FE0BC084E0B82A08C0C8
:100F000024FF09C0E6E0BE2A06C028E030E005C0A4
:100F100020E130E002C020E132E0F801B7FE07C076
:100F200060817181828193810C5F1F4F06C0608157
:100F3000718180E090E00E5F1F4FA401CBD0A82EFE
:100F4000A818FFE7BF22B6FE0BC02B2D2E7FA514DD
:100F500050F4B4FE0AC0B2FC08C02B2D2E7E05C092
:100F60007A2C2B2D03C07A2C01C0752C24FF0DC0C8
:100F7000FE01EA0DF11D8081803311F4297E09C044
:100F800022FF06C07394739404C0822F867809F000
:100F9000739423FD13C020FF0EC05A2C731458F411
:100FA000530C5718732C07C0B70180E290E02C87D0
:100FB00065D073942C857314B8F304C0731410F4C3
:100FC000371801C0312C24FF11C0B70180E390E035
:100FD0002C8754D02C8522FF1CC021FF03C088E53C
:100FE00090E002C088E790E0B7010CC0822F8678BD
:100FF00081F021FD02C080E201C08BE227FD8DE27D
:10100000B70190E03BD005C0B70180E390E036D057
:101010005A94A514C8F3AA94F401EA0DF11DB7017E
:10102000808190E02BD0A110F6CF05C0B70180E2FF
:1010300090E024D03A943110F9CF50CEF7012681B8
:10104000378102C02FEF3FEFC9012C96E2E1BCC00F
:10105000FC010590615070400110D8F78095909583
:101060008E0F9F1F0895FC01615070400190011088
:10107000D8F7809590958E0F9F1F08950F931F931B
:10108000CF93DF938C01EB018B8181FD03C00FEFC8
:101090001FEF1AC082FF0DC02E813F818C819D8180
:1010A0002817390764F4E881F9810193F983E8830B
:1010B00006C0E885F985802F0995892B41F78E8137
:1010C0009F8101969F838E83C801DF91CF911F91ED
:1010D0000F910895FA01AA27283051F1203181F1AA
:1010E000E8946F936E7F6E5F7F4F8F4F9F4FAF4F30
:1010F000B1E03ED0B4E03CD0670F781F891F9A1F43
:10110000A11D680F791F8A1F911DA11D6A0F711DF6
:10111000811D911DA11D20D009F468943F912AE002
:10112000269F11243019305D3193DEF6CF010895EA
:10113000462F4770405D4193B3E00FD0C9F7F6CF1B
:10114000462F4F70405D4A3318F0495D31FD4052E3
:10115000419302D0A9F7EACFB4E0A6959795879579
:1011600077956795BA95C9F7009761057105089558
:101170009B01AC010A2E0694579547953795279504
:10118000BA95C9F7620F731F841F951FA01D08959C
:101190002F923F924F925F926F927F928F929F9287
:1011A000AF92BF92CF92DF92EF92FF920F931F9375
:1011B000CF93DF93CDB7DEB7CA1BDB0B0FB6F89426
:1011C000DEBF0FBECDBF09942A88398848885F8466
:1011D0006E847D848C849B84AA84B984C884DF80D7
:1011E000EE80FD800C811B81AA81B981CE0FD11DBB
:1011F0000FB6F894DEBF0FBECDBFED010895F89491
:02120000FFCF1E
:10120200424F494C4552004B4F43494F4C005341CA
:101212004C4F4E0020204B746F72612074656D70CC
:101222006572617475726520726567756C6F77613E
:10123200633F00537465726F776E696B20646F2031
:101242006B6F746C6120432E4F2E206E6120706193
:101252006C697761207374616C652100202053747E
:1012620065726F776E696B20646F202000202020EA
:101272006B6F746C6120432E4F2E202020002020A3
:1012820020202020206E61202020202020200020ED
:101292002070616C697761207374616C652E200027
:1012A20077796B6F6E616C3A2020202020202020FD
:1012B2000020202020204D696368616C20202020BE
:1012C2002000202020437A61706C6577736B69205F
:1012D2002020002020202020737479637A656E20FC
:1012E2002731350053414C4F4E202020202020280A
:1012F200312900424F494C455220202020202832DB
:1013020029004B4F43494F4C2020202020283329CD
:1013120000202020202020202020202020202020EB
:101322002000202020202053414C4F4E20202020FE
:101332002020002020202020424F494C45522020CE
:101342002020200020202020204B4F43494F4C20BA
:101352002020202000202020204E617374617761BC
:101362003A2020202000256420DF43002564DF434B
:101372000044616C656A202A2020506F6E6F7720CE
:10138200230020280025640020626F696C657220AA
:10139200206B6F63696F6C2000206B6F63696F6CE9
:1013A20020202073616C6F6E20002073616C6F6E61
:1013B200202020626F696C6572200020202020208E
:1013C200414C41524D21202020202000202050520B
:0E13D2005A4547525A414E49452120200000FD
:00000001FF
